:020000040800F2
:10000000A83A002021020008E53900085935000807
:10001000E1390008BD12000809480008000000008E
:1000200000000000000000000000000005010008C2
:100030000D130008000000004901000831430008CA
:100040003B0200083B0200083B0200083B0200089C
:100050003B0200083B0200083B0200083B0200088C
:100060003B0200083B0200083B020008C1120008E6
:100070003B0200083B0200083B020008D1120008C6
:100080003B0200083B020008591100083B0200082F
:100090003B0200083B0200083B0200083B0200084C
:1000A0003B020008414400083B0200083B020008F4
:1000B000514400083B0200083B0200083B020008D4
:1000C0003B0200083B0200083B0200083B0200081C
:1000D0003B020008F1470008FD4700083B0200080A
:1000E0000F1300083B0200083B020008DFF810D0A5
:1000F00000F050FE004800472D600008AFF300807C
:10010000A83A0020224B19680868B0E8F00F80F385
:100110000988BFF36F8F4FF0000080F311884EF015
:100120000D0E70470000000006480068006880F36C
:10013000088862B661B6BFF34F8FBFF36F8F00DFE1
:1001400000BF00BF08ED00E0EFF30980BFF36F8F41
:100150000F4B1A6820E9F00F106008B54FF05000FF
:1001600080F31188BFF34F8FBFF36F8F08F0A6FBAA
:100170004FF0000080F31188BDE808401968086856
:10018000B0E8F00F80F30988BFF36F8F704700BFAE
:1001900038010020EFF30580704700000246D2E8E6
:1001A0004F0F411CC2E8431F03B1F8E770470246F6
:1001B00052E8000F411C42E8001303B1F8E7704712
:1001C0000246D2E84F0FC2E8431F03B1F9E7704778
:1001D000024652E8000F42E8001303B1F9E7704706
:1001E000024652E8000F830103D3BFF32F8F002094
:1001F000704700F00040084342E8000303B1F0E715
:100200007047024652E8000F800103D2BFF32F8FE0
:100210000020704742E8001303B1F3E70120704764
:100220000648804706480047FEE7FEE7FEE7FEE790
:10023000FEE7FEE7FEE7FEE7FEE7FEE7E94300082C
:10024000ED000008202A04DB203A21FA02F0002108
:10025000704721FA02F3D040C2F1200291400843D6
:100260001946704700487047DCA8000810B50446DE
:10027000FFF7F8FF0068005D00F0010010BD40EAE4
:1002800001039B0703D009E008C9121F08C0042A14
:10029000FAD203E011F8013B00F8013B521EF9D2FB
:1002A0007047D2B201E000F8012B491EFBD2704723
:1002B0000022F6E710B513460A4604461946FFF732
:1002C000F0FF204610BDCBB203E00178994203D085
:1002D000401C521EF9D20020704730B50446002061
:1002E000034600E05B1C934203D2E05CCD5C401B04
:1002F000F8D030BD0FB400B58DB010A909900B90A7
:1003000000914FF0FF300A9000200C9005480690B5
:10031000054807906A4609A80F9900F049FC0DB0FE
:100320005DF814FBCD0B0008EB0B00082DE9FF5F17
:100330001D464FF0FF3BD5E9014691465F464FF021
:100340000008A9697F1C01988847296A8246884766
:100350000028F6D1BAF1FF3F0CD024F4C064002E7F
:1003600019DD600614D5BAF12B0F09D0BAF12D0FA3
:100370000ED103E0584604B0BDE8F09F44F4806419
:10038000A9697F1C01988847761E8246002E02DDEF
:10039000BAF1300F03D0B9F1000F26D032E0A969CD
:1003A000761E44F400747F1C019888478246002E14
:1003B00005DDBAF1780F06D0BAF1580F03D0B9F1C4
:1003C000000F10D01EE0B9F1000F02D0B9F1100FEC
:1003D00018D1A969761E24F400747F1C01988847FF
:1003E0008246102002E0082000E00A20814609E051
:1003F00008FB0908A969761E44F400747F1C019863
:1004000088478246002E05DD4946504600F0BCFB79
:100410000028EDDAE96901988847A00502D46FF059
:100420000100A8E7E00725D1600613D5600502D5D5
:10043000C8F1000000E0404629680A1D2A600968EA
:10044000220501D5087015E0220701D5088011E0CA
:1004500008600FE02868011D29600068210502D5A9
:1004600080F8008006E0210702D5A0F8008001E0B6
:10047000C0F8008038467EE7F0B480EA0102D40F6D
:100480004200B2EB410F02D20246084611464A0032
:1004900042D0C30DDDB2C1F3C752AD1A202D35DAFB
:1004A000C1F3160141F4000204B15242C5F1200625
:1004B00002FA06F12A411044B3EBD05F23D0C4B155
:1004C000012DA0EBC35009DCF0BC4FF0004202EA62
:1004D000C352DBB200F5000000F0A1BB400000F108
:1004E000807000EBC350A0F1807040EAD1704900E9
:1004F00009E0490841EAC071A0EBC35000F50000D3
:10050000400800EBC350F0BC00F080BB6142012208
:1005100002EB4101001BF6E7F0BC704781F000419F
:10052000AAE780F00040A7E780EA010210B502F0D8
:100530000043400022D04A001FD0010E01EB12619F
:10054000C0F35600C2F3560240F4000042F4000229
:10055000A0FB022000047F39140400D0401C50EAA4
:10056000124001D44000491EC2B20C0604EBD01068
:10057000401C4008802A02D003E0002010BD20F07B
:100580000100002900DA0020184310BD30B480EAD1
:10059000010202F0004530F0004221F0004013D08B
:1005A00090B1C30DD40DC2F31601C0F31600E41AC6
:1005B00041F4000140F400027D34914201D3641CF7
:1005C00000E04900002C02DA30BC002070474FF4F4
:1005D00000000023914201D3891A034340084FEAE7
:1005E0004101F7D151B1914202D14FF0004105E0F4
:1005F00002D24FF0010101E06FF0010103EBC450A2
:10060000284430BC00F002BB2DE9FE4F804681EA51
:100610000300C00F0C46009021F0004123F000457C
:10062000B8EB0200A94105D24046214690461C463F
:100630000B46024623F00040104347D0270DC7F376
:100640000A00C3F30A510290401A019040286BDA65
:10065000C3F3130040F4801B0098924620B100239E
:10066000D2EB030A63EB0B0B01985946C0F1400231
:10067000504600F068FA06460D4650465946019A23
:1006800000F070FA10EB08006141002487EA115273
:1006900084EAE7731A4340D0009A62B3019A012AB0
:1006A0004FEA075215DC001B61EB02014FF00042DC
:1006B00002EA0752CDE90042001C41F580113246A2
:1006C0002B4600F018FB03B0BDE8F08F40462146F2
:1006D000F9E7001B61EB0201001C41F580130018D3
:1006E0005B412018A2F5001747EB030140EAD570E3
:1006F000B6196D4111E06D084FEA360645EAC0753E
:100700004FEA0752001B61EB0201001C41F580110A
:1007100049084FEA30000019514132462B4603B0D8
:10072000BDE8F04F00F0D8BA009801224000002345
:10073000D0EB020263EBE073009821464FEAE074CD
:10074000B8EB000061EB0401E9E783F000435BE7ED
:1007500081F0004158E72DE9FE4F81EA030404F0DF
:10076000004421F0004100944FF0000B23F00043BF
:1007700050EA01045ED052EA03045BD0C3F30A548A
:10078000C1F30A552C44A4F2F3340194A0FB0254A3
:10079000C1F3130141F48011C3F3130343F4801335
:1007A00001FB024400FB034E840A970A44EA815489
:1007B00047EA8357A4FB076802958D0A05FB078566
:1007C0004FEA932C04FB0C542705029D4FEA065870
:1007D00047EA1637B5EB08056EEB070C870E920E4D
:1007E00047EA811742EA8312A7FB0201B6EB0B012D
:1007F00064EB00042B0D43EA0C335E1844EB1C50F1
:10080000DA465146E7FB0201C5F313044FEA0B3306
:1008100043EA14534FEA0432019C43EA0603A4F16D
:100820000C040294009CCDE900B400F064FA03B01B
:10083000BDE8F08F00200146F9E72DE9F04D81EA8F
:10084000030404F0004B21F0004514464FF0000A69
:1008500023F0004150EA050220D054EA01021DD0E5
:10086000C5F30A570246C5F31303C1F31300C1F3DE
:100870000A5640F4801543F48013A7EB0608101BBA
:10088000D64608F2FD3873EB050002D308F10108E3
:1008900001E092185B41B8F1000F03DA0020014635
:1008A000BDE8F08D00204FF48011064684460EE02E
:1008B000171B73EB050705D3121B63EB05030643F8
:1008C0004CEA010C49084FEA300092185B4150EAAB
:1008D0000107EDD152EA030012D082EA040083EA54
:1008E0000501084305D0101BAB4106D201220023AD
:1008F00006E000224FF0004302E06FF001025310C7
:100900001AEB06004CEB085110EB0A0041EB0B010F
:10091000BDE8F04D00F0E0B9C10F80EAE070084496
:10092000CA079623002100F07AB9962300221146C7
:1009300000F075B90EB5C10F80EAE0700844CA072F
:10094000002140F233438DE80E000A460B4600F0CA
:10095000D2F903B000BD0EB540F23341029100213F
:10096000CDE900110A460B4600F0C5F903B000BD01
:1009700000F0004220F00040C10DC0F3160040F42A
:1009800000007F2901DA00207047962903DCC1F1BD
:100990009601C84001E096398840002AF4D04042D0
:1009A000704720F00040C10DC0F3160040F4000075
:1009B0007F2901DA00207047962903DCC1F19601F6
:1009C000C8407047963988407047C1F30A5210B545
:1009D000C1F3130140F2FF3341F480119A4201DA6E
:1009E000002010BD40F233439A42A2F2334203DCAE
:1009F0005242FFF727FC10BD904010BD00F00042AE
:100A000030F000400AD0C10D01F56071C0F316004E
:100A100042EA0151C20840071143704700200146D5
:100A20007047000030B5041E71F1000404DB4FF084
:100A30000044404264EB0101141E73F1000405DB25
:100A40001C464FF00043524263EB04038B4208BF45
:100A5000824230BD30B5041E71F1000404DB4FF05A
:100A60000044404264EB0101141E73F1000405DBF5
:100A70001C464FF00043524263EB0403994208BF07
:100A8000904230BD01F0004330B421F0004150EA03
:100A9000010206D00A0DA2F56072C1F31301002A0B
:100AA00002DC30BC00207047440F44EAC104C1009E
:100AB000E01830BC00EBC25000F0A8B8002801DB01
:100AC000C0F10040002901DBC1F1004181427047C3
:100AD000002801DBC0F10040002901DBC1F1004129
:100AE000884270472DE9F05F0546002092469B46FC
:100AF00088460646814640241BE028464146474634
:100B00002246FFF79FFB53465A46C01A914110D325
:100B100011461846224600F016F82D1A67EB010818
:100B20004F4622460120002100F00DF817EB000986
:100B30004E41201EA4F10104DFDC484631462A461E
:100B40004346BDE8F09F202A04DB203A00FA02F178
:100B5000002070479140C2F1200320FA03F31943AB
:100B600090407047202A06DBCB17203A41FA02F06A
:100B700043EAE07306E041FA02F3D040C2F12002FA
:100B800091400843194670473A2800D2303820F087
:100B90002002412A01D3A2F13700884201D34FF04D
:100BA000FF3070470268114413780160184670479F
:100BB000D16004495161044911620021116111465B
:100BC00000F0FAB8A50B00086D020008426842B1B7
:100BD000016811F8013B23B1521EC0E9001218460A
:100BE00070470121C160881E704742685AB1C368CE
:100BF000016843B983688B4205D0491E521CC0E985
:100C00000012002070474FF0FF3070470029A8BF46
:100C10007047401C490008BF20F00100704710B425
:100C2000B0FA80FC00FA0CF050EA010404BF10BCDA
:100C3000704749B1CCF1200421FA04F411FA0CF107
:100C400018BF012121430843A3EB0C01CB1D4FEA40
:100C500000614FEA102042BF002010BC704700EB3B
:100C6000C35010440029A4BF10BC7047401C490069
:100C700008BF20F0010010BC7047F0B4002802DC6F
:100C8000F0BC00207047C0F3C751C0F3160040F419
:100C90000000CA0701D14000491E3F2202EB610556
:100CA000002211464FF4000626FA01F31344D4182B
:100CB000844201D8001B1A464000491C1729F3DD65
:100CC0005100814202D24FF0FF3100E0002102EBDF
:100CD000C550F0BCFFF79ABF10B5141E73F10004A5
:100CE00008DA401C41F1000192185B411A4301D11E
:100CF00020F0010010BD2DE9F04D92469B4611B148
:100D0000B1FA81F202E0B0FA80F220329046FFF7A9
:100D10001AFF04460F4640EA0A0041EA0B01534617
:100D20005A46084313D0114653EA010019D0C8F1BE
:100D300040025046FFF786FA05460E465046594691
:100D40004246FFF700FF084305D0012004E020469B
:100D50003946BDE8F08D0020054346EAE0762C4395
:100D600037430A986305E40AA0EB08000022FD0A55
:100D700044EA47540A3002D500200146E9E701055C
:100D800010196941DDE9084500196941BDE8F04DD8
:100D9000A2E70000064C074D06E0E06840F00103C2
:100DA00094E8070098471034AC42F6D3FFF7A2F955
:100DB0002CA900084CA900082DE9F34F8BB04FF087
:100DC000000801F10C000C464FF0010B46460DF1F6
:100DD000080A01906269012101989047051E2DD0F3
:100DE000252D2CD0216A8847C0B162690121019864
:100DF0009047216A88470028F7D1411E626901980F
:100E0000904700E0761CA1690B988847216A8847C3
:100E10000028F7D1E1690B988847DBE7A1690B98B7
:100E200088470746A84201D1761CD3E7E1690B98B1
:100E300088477F1C02D1B8F1000F6FD047E100272F
:100E400062693D463946019890472A2804D1626973
:100E50000121019890470125DFF8889262690121FC
:100E600001989047A0F130010A290AD24F45E5DCEC
:100E700007EB870100EB4107303FDFD445F0100559
:100E8000ECE7E90601D46FF000476C280AD04C2843
:100E900014D0682815D06A280DD074281CD07A2860
:100EA0001AD01DE062690121019890476C2802D098
:100EB00045F0040514E045F002050DE045F020057D
:100EC0000AE06269012101989047682802D045F044
:100ED000080505E045F40065626901210198904725
:100EE000C4E9015765283DD019DC58287AD00CDCBC
:100EF000452837D004DC252826D0412831D131E0DF
:100F000046282FD047282CD12CE05B2877D06128A9
:100F100028D063287CD0642823D15AE0D1E06F2800
:100F200048D008DC66281DD067281BD0692821D04E
:100F30006E2816D127E0702845D0732868D0752810
:100F400047D078280DD14DE0A1690B988847054618
:100F500025283FF469AFE1690B9888476D1C3FF481
:100F60006AAFB4E023466A466FF001000B99AFF315
:100F700000809FE045F040006060A80723464FF0E6
:100F8000000236D43EE0E8077FF447AF2068011D39
:100F900021600068290501D506701BE7290701D5E6
:100FA000068017E7A90703D5F117C0E9006111E72B
:100FB00006600FE745F040006060A80723464FF049
:100FC000080216D41EE040F60E0125EA010060601A
:100FD00016E045F040006060A80723464FF00A0283
:100FE00007D40FE045F040006060A80708D523460D
:100FF00010226FF001000B99AFF300805AE007E078
:10100000234610226FF001000B99FFF78FF951E092
:101010004FF000094F464B46632802D05B2807D0AB
:1010200041E02079C00601D40120A06001273AE008
:1010300062690121019890475E2805D14FF00109AE
:101040006269494601989047216939B900210A46E9
:10105000534643F82120491C0829FADBB0B3216923
:1010600069B9C11700EBD16253110AEB830122F079
:101070001F02821A01200B68904003430B606269D3
:101080000121019890475D28E8D1B9F1000F09D0FE
:101090000020514651F82020D24341F82020401C26
:1010A0000828F7DB02AB224600976FF001000B998E
:1010B000AFF3008000280CDA401C08D1BBF1000F10
:1010C00005D04FF0FF300DB0BDE8F08FFFE7404690
:1010D000F9E7E90701D108F1010806444FF0000BD8
:1010E00078E60000CCCCCC0C420005D0C0F3C7524F
:1010F0005242914201DC0020704700EBC150704722
:1011000070B58C1810F8015B15F0070301D110F8C9
:10111000013B2A1106D110F8012B03E010F8016BF6
:1011200001F8016B5B1EF9D12B0705D40023521E79
:101130000DD401F8013BFAE710F8013BCB1A921CE1
:1011400003E013F8015B01F8015B521EF9D5A142DF
:10115000D8D3002070BD000010B5024800F0F7FBA6
:1011600010BD0000C005002070B5044600252068B1
:10117000806800F00100F0B12068806820F0010074
:101180002168886001F02AFA05460EE001F026FA8F
:10119000401B022809D9A06A40F01000A062E06A52
:1011A00040F00100E062012070BD2068806800F01E
:1011B00001000028EAD10020F6E770B505466C6A08
:1011C000A06A00F05000E0B9A06A40F40070A0628C
:1011D0002068806800F46020B0F5602F0DD1207B7E
:1011E00058B9A06A20F48070A062A06A00F4805010
:1011F00018B9A06A40F00100A062204600F0A4FBEC
:1012000003E0206A016B2846884770BD70B505462B
:101210006C6AA06A40F04000A062E06A40F00400FE
:10122000E062204600F092FB70BD70B50446656A2E
:10123000284600F08AFB70BD38B504460025002022
:1012400000902068806800F0010080BB2068806802
:1012500040F0010021688860164800681649B0FB1C
:10126000F1F0009002E00098401E009000980028E5
:10127000F9D101F0B3F9054613E001F0AFF9401BD5
:1012800002280ED9A06A40F01000A062E06A40F087
:101290000100E06200BF002084F8240000BF0120AC
:1012A00038BD2068806800F001000028E5D00020EB
:1012B000F6E700003401002040420F0000BFFEE7C7
:1012C00010B5024800F098FD10BD0000F0050020A8
:1012D00010B5024800F090FD10BD00009C0B0020EE
:1012E00030B590F840500124AC40C56B6C60046888
:1012F00063604468102C04D10468A2600468E16053
:1013000003E00468A1600468E26030BD704710B576
:101310004FF4805000F0AEFF10BD00BFFEE70000AC
:1013200070B500BF1248866900F070F90446B442F7
:1013300011D200BF01210F48FEF742FF58B90C48F7
:101340000069401C0A49086100BF00210948FEF7F6
:1013500037FF00BF00BF00BF214605481830FEF729
:1013600037FF054600BFAE42DCD1204670BD00000D
:1013700080360020AC0100202DE9FF4F81B0884667
:1013800091469A464FF0070B51E000BF2E48FEF7FA
:101390000EFF064606F03F002C4901EB0014B00991
:1013A0004FF4700101EA00510091DDE9001008439B
:1013B0004FF0805101EAD80108434FF0005101EA93
:1013C000990108434FF0804101EA5A01084340F077
:1013D0004065294604F10C00FEF702FF054605F0C2
:1013E000806010B385F0806585F0004505F000470A
:1013F00028F000403843206029F000403843606006
:101400002AF000403843A060294604F10C00FEF7A2
:10141000F8FE48B100BF0C48001DFEF7C8FE00BF33
:10142000012005B0BDE8F08F04E0ABF1010BBBF18A
:10143000000FAAD100BF00BF03480830FEF7B7FE77
:1014400000BF0020EDE700008436002000320020BD
:10145000F0B506460C461546FF2C01D2FF2D01D3F0
:101460000020F0BD002200231AE001209840304007
:10147000A0B1214610E002EBD1000B4F385C01F027
:10148000070C012707FA0CF7384302EBD107DFF806
:1014900018C00CF80700491CA942ECD920325B1C8B
:1014A000042BE2D30120DCE7003600202DE9F05FB9
:1014B0008246894600204249087080214148FEF753
:1014C000F7FE1821404803F083FD80463C48006A3F
:1014D0003E49884208D00846394908620846A0F8C3
:1014E00002800120C8610FE035484088404506D0A1
:1014F0003348A0F8028001203149C86104E0304837
:10150000C069401C2E49C8612D48C06901280BD113
:1015100000202B49487048608860C8604FF48061A3
:101520002B48FEF7C5FE0FE000270BE0284800EB34
:101530000715E86800F0806018B1E86820F04060A6
:10154000E8607F1C402FF1D31D48C069012811D1EC
:1015500000F068F804461CB100F05EF8064600E0B2
:10156000002617484661002015498861086119491D
:10157000087002E000F056F80446ECB1FE220021AB
:101580005046FFF765FFEF2211460F20FFF760FF7F
:10159000FE2211460420FFF75BFFFFF7C1FE8346E2
:1015A000074843695946C2690B48FFF7E5FEB9F1A0
:1015B000000F01D000F012F82046BDE8F09F0000B7
:1015C000803600200036002040A800086B27A5E1E7
:1015D00000320020AC01002000FF000310B50948D4
:1015E000007808B1012010BD012006490870FFF7FE
:1015F00097FE044600231A4621460348FFF7BCFE27
:101600000120F0E78036002001FF00030148406818
:1016100070470000001000E00148006870470000BB
:10162000340100200648006840F0807004490860DA
:101630000448006840F0010002490860012070473A
:10164000FCED00E0001000E00021074AD1610749ED
:10165000096941F00401054A11611146096941F027
:101660004001116170470000A80C002000200240DA
:101670000021074AD1610749096941F00201054A81
:10168000116111464861096941F0400111617047DB
:10169000A80C0020002002400022054BDA61054A18
:1016A000126942F00102034B1A6101807047000089
:1016B000A80C00200020024000201E49C96801F04B
:1016C000100139B11C49C96941F002011A4AD161BE
:1016D00040F010001749C96801F0040139B11649FA
:1016E000C96941F00101144AD16140F00400114977
:1016F000C96901F0010169B10F49C96941F00401EB
:101700000D4AD16100BF0B49C96921F00101094AA5
:10171000D16100BF00BF40F20111884206D10549E6
:10172000C96921F00101034AD16101E00149C860A2
:1017300000BF704700200240A80C002070B504468E
:1017400000F04CFF054609E0601C38B124B100F000
:1017500045FF401BA04201D9032070BD1248C0685C
:1017600000F001000028EFD10F48C06800F0200011
:1017700020B100BF20200C49C86000BF0A48C068E3
:1017800000F0100048B90848C06900F0010020B915
:101790000548C06800F0040018B1FFF78DFF012074
:1017A000DBE70020D9E70000002002402DE9F041EE
:1017B00004460E46174600250AE036F815C0624674
:1017C00000232146012000F0DDFCA41C681C85B22A
:1017D000BD42F2DBBDE8F08101480088704700009F
:1017E000240100207047000038B502460023002085
:1017F000009000BF92F82400012801D1022038BDDA
:10180000012082F8240000BF4868072812D210681F
:10181000406B0C79641E04EB84051F24AC40A0438C
:101820000D796D1E05EB85050C68AC4020431468EE
:10183000606327E048680D2812D21068006B0C79AD
:10184000E41F04EB84051F24AC40A0430D79ED1F79
:1018500005EB85050C68AC4020431468206311E05B
:101860001068C06A0C790D3C04EB84051F24AC4061
:10187000A0430D790D3D05EB85050C68AC40204378
:101880001468E06208680A2812D31068C0680C78EF
:101890000A3C04EB44050724AC40A0430D780A3D04
:1018A00005EB45058C68AC4020431468E0600FE010
:1018B000106800690C7804EB44050724AC40A04391
:1018C0000D7805EB45058C68AC4020431468206119
:1018D0000868102802D00868112827D1174C106812
:1018E000A0421ED11068806800F40000F0B91068B2
:1018F000806840F400001468A0600868102815D1C2
:101900000F4800680F4CB0FBF4F000EB8000400083
:10191000009002E00098401E009000980028F9D145
:1019200004E0906A40F020009062012300BF002094
:1019300082F8240000BF184661E70000002401403F
:101940003401002040420F0070477047704710B5C7
:1019500004462068406800F0200020282FD120682D
:10196000006800F00200022829D1A06A00F01000EF
:1019700018B9A06A40F40070A0622068806800F482
:101980006020B0F5602F13D1207B88B920684068B3
:1019900020F0200021684860A06A20F48070A062D6
:1019A000A06A00F4805018B9A06A40F00100A0625B
:1019B0002046FFF7C9FF6FF0120021680860206819
:1019C000406800F0800080283BD12068006800F06B
:1019D0000400042835D1A06A00F0100018B9A06AEC
:1019E00040F40050A0622068806800F4E040B0F548
:1019F000E04F0DD02068406800F48060D0B92068C6
:101A0000806800F46020B0F5602F13D1207B88B986
:101A10002068406820F0800021684860A06A20F4B7
:101A20008050A062A06A00F4807018B9A06A40F0EB
:101A30000100A0622046FFF7D5FE6FF00C00216880
:101A400008602068406800F0400040280FD12068FE
:101A5000006800F0010050B1A06A40F48030A0623C
:101A6000204600F0A7F86FF001002168086010BD63
:101A70002DE9F0410446002700250026A84614B9A8
:101A80000120BDE8F081A06810B1207D00B100BF49
:101A9000A06A30B90020E06284F82400204600F0FB
:101AA0008BF82046FFF760FB0746A06A00F01000A5
:101AB000002873D1002F71D1A06A20F4885040F023
:101AC0000200A062E16960680843217B40EA4100AE
:101AD0000643A068B0F5807F02D0A068012802D13B
:101AE0004FF4807000E000200543207D012811D1D3
:101AF000207B38B9A069401E4FF4006141EA4030B4
:101B0000054307E0A06A40F02000A062E06A40F0D0
:101B10000100E0622068406820F4694028432168A1
:101B20004860206880682149084030432168886007
:101B3000A068B0F5807F02D0A068012802D14FF4E0
:101B4000807000E00020B0F5807F03D1208A401E25
:101B50004FEA00582068C06A20F4700040EA08008C
:101B60002168C8622068806811490840B04208D1E5
:101B70000020E062A06A20F0020040F00100A062B4
:101B800011E0A06A20F0020040F01000A062E06ABC
:101B900040F00100E062012705E0FFE7A06A40F0A5
:101BA0001000A062012738466BE70000FDF7E1FF57
:101BB000FE0E1FFF7047000010B586B004460020DF
:101BC000029003900490059026492068884247D1EE
:101BD00000BF2548806940F40070234988610846A9
:101BE000806900F40070019000BF00BF00BF08468C
:101BF000806940F0040088610846806900F00400B4
:101C0000019000BF00BFF82002900320039002A9BA
:101C1000164800F03DFB1648164908600020486051
:101C20000021144881608021C16049000161890060
:101C30004161002181614FF40051C16100F0AAF9B6
:101C400008B1FFF76AFB00BF0A482062446200BF88
:101C500000220521122000F06BFD122000F058FD3B
:101C600006B010BD002401400010024000080140F1
:101C700008000240F00500202DE9F04104460D4621
:101C80001646002757492068884203D056492068E5
:101C9000884205D15348001D006800F4702000E020
:101CA000002000287ED100BF94F82400012802D132
:101CB0000220BDE8F081012084F8240000BF204606
:101CC000FFF7BAFA0746002F6DD1A06A40F601610E
:101CD000884340F48070A06243492068884209D15B
:101CE0004048001D006800F4702008B9012002E09F
:101CF000002000E0012078B1A06A20F48010A062EA
:101D00002068406800F4806000B3A06A20F40050AE
:101D100040F48050A06219E0A06A40F48010A062F4
:101D200030492068884203D02F492068884205D175
:101D30002C48001D006800F4806000E0002028B1FD
:101D4000A06A20F4005040F48050A062A06A00F421
:101D5000805020B1E06A20F00600E06201E000203F
:101D6000E06200BF002084F8240000BF1F48216A01
:101D700088621F48216AC8621E48216A08636FF0A2
:101D80000200216808602068806840F48070216843
:101D90008860226802F14C0133462A46206A00F02E
:101DA0002DF901E01AE014E02068806800F460205A
:101DB000B0F5602F06D12068806840F4A00021684B
:101DC00088600CE02068806840F48010216888609A
:101DD00005E000BF002084F8240000E00127384619
:101DE00067E700000024014000280140BB11000803
:101DF0002B1200080D12000870B50446E06B056850
:101E00002068066894F84010042088402840002884
:101E100046D006F00400002842D02068006800F098
:101E2000200028B92068006820F0040021680860BC
:101E300057492068884201D1042027E054491431D1
:101E40002068884201D1402020E051492831206893
:101E5000884201D1001519E04D493C312068884283
:101E600002D14FF4804011E0494950312068884246
:101E700002D14FF4802009E045496431206888424E
:101E800002D14FF4800001E04FF0806040490839F2
:101E90004860E06A00287AD02046E16A884776E008
:101EA00094F84010022088402840A0B306F00200B9
:101EB00088B32068006800F0200040B920680068FE
:101EC00020F00A0021680860012084F821003049D0
:101ED0002068884201D1022028E02D491431206871
:101EE000884201D1202021E02949283120688842F8
:101EF00001D140151AE026493C312068884202D1C0
:101F00004FF4005012E0224950312068884203D13A
:101F10004FF400300AE017E01D4964312068884220
:101F200002D14FF4001001E04FF000701849083959
:101F3000486000BF002084F8200000BFA06A30B3D2
:101F40002046A16A884722E094F840100820884083
:101F50002840E0B106F00800C8B12068006820F011
:101F60000E002168086094F8401001208840E16B61
:101F700048600120A06384F8210000BF002084F89D
:101F8000200000BF206B10B12046216B884770BD38
:101F9000080002400146002209B901207047164B93
:101FA0000868C01A1423B0FBF3F0800008641248DC
:101FB0000838C863022081F821000868026843F6E7
:101FC000F0708243D1E901031843CB6818430B69D1
:101FD00018434B6918438B691843CB691843024374
:101FE0000868026000208863012081F82100002039
:101FF00081F8200000BFD1E7080002402DE9F04140
:1020000004460D4616461F464FF0000800BF94F8E0
:102010002000012802D10220BDE8F081012084F8CF
:10202000200000BF94F8210001282CD1022084F860
:1020300021000020A0632068006820F001002168D2
:1020400008603B46324629462046FFF749F9E06AD8
:1020500030B12068006840F00E00216808600BE095
:102060002068006820F0040021680860206800688B
:1020700040F00A00216808602068006840F0010014
:102080002168086006E000BF002084F8200000BF3F
:102090004FF002084046BFE770B5044600F09EFAD4
:1020A00006462546681C10B104480078054400BF68
:1020B00000F094FA801BA842FAD370BD30010020D2
:1020C0002DE9F04104460E460127002500BF2648B1
:1020D000007E012802D10220BDE8F08101202249C2
:1020E000087600BF2068022813D14CF25030FFF769
:1020F00025FB90BB0120FFF7A7FA4CF25030FFF709
:102100001DFB07461948006920F0040017490861C3
:1021100023E04CF25030FFF711FBF0B94FF0FF30E5
:102120003060A56812E02846FFF7A2FA4CF2503062
:10213000FFF704FB07460D48006920F002000B4939
:1021400008610FB1356007E005F58065D4E902103C
:1021500001EB8020A842E6D800BF00BF0020024962
:10216000087600BF3846B7E7A80C002000200240E0
:102170000348006940F08000014908610020704771
:10218000002002402DE9FE4F05468B461746984633
:10219000012600240020029000BF2448007E012870
:1021A00002D10220BDE8FE8F01202049087600BF41
:1021B0004CF25030FFF7C2FA064686BB012D02D121
:1021C0000120029006E0022D02D10220029001E0DF
:1021D0000420029000241EE02201B946C24648466F
:1021E0005146FEF72FF880B20190022000FB04B0A8
:1021F00000900199FFF750FA4CF25030FFF79EFA29
:1022000006460B48006920F001000949086106B143
:1022100004E0601CC4B202988442DDDB00BF00BF52
:1022200000200249087600BF3046BBE7A80C00201A
:102230000020024000200849096901F0800151B1E5
:102240000649054A5160064951601146096901F085
:10225000800101B101207047002002402301674541
:10226000AB89EFCD00B50246B2F5805F01D103F036
:10227000F7FC00BD10B5044604480068204020B1BA
:10228000024804602046FFF7EDFF10BD1404014032
:102290002DE9F8470346002294466EE14FF001080D
:1022A00008FA02F4D1F8008008EA0400A0427DD1C7
:1022B000DFF8DCA2D1F80480A8EB0A09D0453AD0B7
:1022C00014DCB8F1030F50D009DCB8F1000F31D0A5
:1022D000B8F1010F1CD0B8F1020F49D120E0B8F1DC
:1022E000110F18D0B8F1120F42D11EE0B9F5881FB6
:1022F00025D006DCB9F5803F20D0B9F5801F37D155
:102300001AE0B9F5001F18D0B9F5041F30D117E055
:10231000D1F80CC02DE0D1F80C8008F1040C28E0B5
:10232000D1F80C8008F1080C23E0D1F80C8008F1FA
:102330000C0C1EE000BF00BF00BF00BF00BF00BF0D
:10234000D1F80880B8F1000F02D14FF0040C0BE077
:10235000D1F80880B8F1010F03D14FF0080C1C61CF
:1023600002E04FF0080C5C6103E04FF0000C00E06D
:1023700000BF00BFFF2801D8984601E003F1040820
:102380004646FF2802D84FEA820803E0A2F1080877
:102390004FEA88084746D6F800804FF00F0909FA3F
:1023A00007F928EA09080CFA07F900E088E048EA8A
:1023B0000908C6F80080D1F8048008F08058B8F108
:1023C000805F7DD100BFDFF8CC81D8F8188048F05D
:1023D0000108DFF8C091C9F81880C846D8F81880FD
:1023E00008F00108CDF8008000BF00BF4FEAB938FF
:1023F0004FEA920958F829504FEA82784FEA187943
:102400004FF00F0808FA09F825EA0805DFF8888177
:10241000434502D14FF0000816E0DFF880814345C4
:1024200002D14FF001080FE0DFF87481434502D17B
:102430004FF0020808E0DFF86C81434502D14FF00D
:10244000030801E04FF004084FEA82794FEA197956
:1024500008FA09F848EA0505DFF84C814FEA9209C5
:1024600048F82950D1F8048008F48038B8F5803F46
:102470000AD1DFF83881D8F8008048EA0008DFF890
:102480002C91C9F8008009E0DFF82081D8F800809D
:1024900028EA0008DFF81491C9F80080D1F8048018
:1024A00008F40038B8F5003F10D1DFF8008108F1DA
:1024B0000408D8F8008048EA0008DFF8F09000E04F
:1024C0005AE009F10409C9F800800DE0DFF8DC806A
:1024D00008F10408D8F8008028EA0008DFF8CC905A
:1024E00009F10409C9F80080D1F8048008F48018C3
:1024F000B8F5801F0ED1DFF8B48008F10808D8F8CD
:10250000008048EA0008DFF8A49009F10809C9F83A
:1025100000800DE0DFF8948008F10808D8F800800A
:1025200028EA0008DFF8849009F10809C9F800805A
:10253000D1F8048008F40018B8F5001F0ED1DFF8B8
:102540006C8008F10C08D8F8008048EA0008DFF831
:102550005C9009F10C09C9F800800DE0DFF84C80AF
:1025600008F10C08D8F8008028EA0008DFF83C9051
:1025700009F10C09C9F80080521CD1F8008028FA32
:1025800002F8B8F1000F7FF489AEBDE8F8870000CB
:10259000000011100010024000080140000C014032
:1025A00000100140001401400800014000040140F7
:1025B000024693680B400BB1012000E000207047F9
:1025C000C2680A400AB1416100E0016170470AB186
:1025D000016101E00B0403617047000001480068DD
:1025E000704700002801002003480068034909786B
:1025F000084401490860704728010020300100208C
:1026000010B50848006840F0100006490860032033
:1026100000F0CCF8002000F007F800F049F80020A6
:1026200010BD00000020024070B588B004460025AF
:10263000002600222146192000F07AF8192000F027
:1026400067F800BF1648806940F40060144988614B
:102650000846806900F40060019000BF00BF02A935
:1026600003A800F015FA00F04BFA05460D48B5FB3B
:10267000F0F0461E0C480D49086040F2E7310B4867
:10268000C160466000210161816000F0F1FC20B969
:10269000064800F03BFD08B070BD0120FBE70000DC
:1026A0000010024040420F00002C0140E00B0020CF
:1026B00008B500BF1448806940F0010012498861E4
:1026C0000846806900F00100009000BF00BF00BF15
:1026D0000846C06940F08050C8610846C06900F0F3
:1026E0008050009000BF00BF00220F21901E00F01C
:1026F0001FF800BF0549486820F0E06040F0007016
:10270000486000BF08BD000000100240000001400A
:1027100001460846002809DB00F01F0301229A4009
:1027200043099B0003F1E023C3F8002100BF704779
:102730002DE9F05F80460D461646002702F08EF820
:10274000074639462A46334601F00700C0F1070A1A
:10275000BAF1040F02D94FF0040A01E0C0F1070AF0
:10276000D14600F1040ABAF1070F02D24FF0000A75
:1027700001E0A0F1030AD4464FF0010A0AFA09FA6F
:10278000AAF1010A0AEA020A0AFA0CFA4FF0010B4E
:102790000BFA0CFBABF1010B0BEA030B4AEA0B043F
:1027A0002146404602F062F8BDE8F09F00BF00F00D
:1027B0000702064B19684FF6FF031940044B0B4301
:1027C00043EA0221014B196000BF70470CED00E0A5
:1027D0000000FA05F8B5044600260025207800F030
:1027E000010000286BD000274348C06900F08050EA
:1027F00070B900BF4048C06940F080503E49C86190
:102800000846C06900F08050009000BF00BF01275B
:102810003A48006800F48070B0B93848006840F465
:10282000807036490860FFF7D9FE064606E0FFF7DC
:10283000D5FE801B642801D90320F8BD2F4800680D
:1028400000F480700028F2D02B48006A00F4407534
:102850002DB3A08800F44070A84220D02648006A1A
:1028600020F44075012026490860002008602248B5
:10287000056205F0010090B1FFF7B0FE064608E0E2
:10288000FFF7ACFE801B41F28831884201D903205A
:10289000D3E71948006A00F002000028F0D016487B
:1028A000006A20F440706168084313490862012FF0
:1028B00004D10846C06920F08050C86100BF20786C
:1028C00000F00200022807D10B48406820F4404085
:1028D000A168084308494860207800F010001028DB
:1028E00007D10548406820F48000E16808430249A8
:1028F00048600020A1E70000001002400070004086
:102900004004424270B504460D460CB9012070BD2A
:102910005A48006800F00700A8420ED257480068E5
:1029200020F007002843554908600846006800F079
:102930000700A84201D00120E9E7207800F002005A
:1029400002281DD1207800F00400042805D14C484D
:10295000406840F4E0604A494860207800F0080090
:10296000082805D14648406840F460504449486012
:102970004348406820F0F000A1680843404948609F
:10298000207800F0010078B36068012806D13C4847
:10299000006800F4003090B90120B8E760680228B0
:1029A00006D13748006800F0007040B90120AEE75A
:1029B0003348006800F0020008B90120A7E730485A
:1029C000406820F00300616808432D494860FFF724
:1029D00005FE064609E0FFF701FE801B41F2883143
:1029E000884202D9032092E707E02548406800F0BA
:1029F0000C006168B0EB810FEDD12048006800F059
:102A00000700A8420ED91D48006820F0070028439F
:102A10001A4908600846006800F00700A84201D083
:102A2000012074E7207800F00400042807D114483E
:102A3000406820F4E060E16808431149486020786C
:102A400000F00800082808D10D48406820F46050C4
:102A5000216940EAC1000A49486000F061F808496C
:102A60004968C1F30311074A515CC8400649086030
:102A700006480068FFF7D8FD002048E70020024024
:102A80000010024028A80008340100202C0100207A
:102A90000F2202600D4A526802F0030242600B4AA4
:102AA000526802F0F0028260084A526802F4E06262
:102AB000C260064A526802F46052D2080261044AB7
:102AC000126802F007020A6070470000001002401E
:102AD00000200240014800687047000034010020D7
:102AE00000B5FFF7F7FF04494968C1F30221034A23
:102AF000515CC84000BD00000010024038A800082A
:102B000000B5FFF7E7FF04494968C1F3C221034A52
:102B1000515CC84000BD00000010024038A8000809
:102B2000F0B585B00FF26C0C9CE8E01001A8A0E8AD
:102B3000E0101CA52D680095002100220023002430
:102B40000020194D696801F00C05F5B1042D02D083
:102B5000082D19D101E0154819E001ADC1F38346F4
:102B6000AC5D01F4803555B10F4D6D68C5F340453E
:102B70001DF805200D4D6543B5FBF2F302E00C4D49
:102B800004FB05F3184602E000BF084800BF00BF81
:102B900005B0F0BD02030405060708090A0B0C0D79
:102BA0000E0F1010010200000010024000127A0007
:102BB00000093D00F8B504460CB90120F8BD2078A5
:102BC00000F00100002878D0F848406800F00C00C0
:102BD00004280CD0F548406800F00C00082811D1FA
:102BE000F248406800F48030B0F5803F0AD1EF48E9
:102BF000006800F4003000285FD0606800285CD1D5
:102C00000120DBE700BF6068B0F5803F06D1E748F0
:102C1000006840F48030E549086028E0606858B9F1
:102C2000E248006820F48030E04908600846006807
:102C300020F4802008601AE06068B0F5A02F0BD166
:102C4000DA48006840F48020D849086008460068E7
:102C500040F4803008600AE0D448006820F48030F6
:102C6000D24908600846006820F48020086000BF50
:102C7000606888B1FFF7B2FC054606E0FFF7AEFCDE
:102C8000401B642801D9032098E7C848006800F475
:102C900000300028F2D010E0FFF7A0FC054606E067
:102CA000FFF79CFC401B642801D9032086E7BF483E
:102CB000006800F400300028F2D1207800F0020013
:102CC000022857D1B948406800F00C0050B1B7480D
:102CD000406800F00C00082818D1B448406800F49F
:102CE000803098B9B148006800F0020020B1206936
:102CF000012801D0012061E7AC48006820F0F8000D
:102D0000616940EAC100A949086033E02069E8B17F
:102D10000120A7490860FFF761FC054606E0FFF7C0
:102D20005DFC401B022801D9032047E79F4800684B
:102D300000F002000028F2D09C48006820F0F80063
:102D4000616940EAC1009949086013E00020984990
:102D50000860FFF743FC054606E0FFF73FFC401B19
:102D6000022801D9032029E79048006800F00200FA
:102D70000028F2D1207800F0080008282DD1A069A1
:102D8000B8B101208B490860FFF728FC054606E032
:102D9000FFF724FC401B022801D903200EE78348DB
:102DA000406A00F002000028F2D0012000F026FE68
:102DB00013E000207F490860FFF710FC054606E09D
:102DC000FFF70CFC401B022801D90320F6E67748E8
:102DD000406A00F002000028F2D1207800F00400E0
:102DE000042873D100277148C06900F0805070B981
:102DF00000BF6E48C06940F080506C49C861084609
:102E0000C06900F08050009000BF00BF01276A48F1
:102E1000006800F48070B0B96748006840F48070C2
:102E200065490860FFF7DAFB054606E0FFF7D6FBC9
:102E3000401B642801D90320C0E65F48006800F405
:102E400080700028F2D000BFE068012806D1574802
:102E5000006A40F001005549086227E0E06858B96F
:102E60005248006A20F00100504908620846006A92
:102E700020F00400086219E0E06805280BD14B48F7
:102E8000006A40F00400494908620846006A40F0C0
:102E9000010008620AE04548006A20F00100434949
:102EA00008620846006A20F00400086200BFE0687B
:102EB000A0B1FFF793FB054609E0FFF78FFB401B2E
:102EC00041F28831884202D9032077E622E0374870
:102ED000006A00F002000028EFD012E0FFF77EFB4E
:102EE000054608E0FFF77AFB401B41F28831884233
:102EF00001D9032062E62D48006A00F00200002894
:102F0000F0D1012F05D12948C06920F08050274910
:102F1000C86100BFE069C8B32448406800F00C00F5
:102F2000082860D0E069022848D1002020490866BE
:102F3000FFF754FB054606E0FFF750FB401B022855
:102F400001D903203AE61948006800F00070002813
:102F5000F2D1206AB0F5803F07D11448406820F4D0
:102F60000030A168084311494860D4E908010843CA
:102F70000E49496821F4741108430C494860012046
:102F80000B490866FFF72AFB054607E03DE0FFF71F
:102F900025FB401B022801D903200FE603480068E7
:102FA00000F000700028F2D02FE000000010024076
:102FB0000000424280044242007000400020144958
:102FC0000866FFF70BFB054606E0FFF707FB401B13
:102FD000022801D90320F1E50E48006800F00070D6
:102FE0000028F2D111E0E069012800D1E6E50948A6
:102FF000466806F48031206A814204D106F47011DB
:10300000606A814201D00120D8E50020D6E50000A9
:1030100000004242001002407047704710B502465F
:1030200000BF92F83C00012801D1022010BD012010
:1030300082F83C0000BF022082F83D00106843681F
:103040001068846823F070030868034324F0800448
:10305000486804431068436010688460012082F867
:103060003D0000BF002082F83C0000BF00BFDDE74C
:1030700010B504460CB9012010BD94F83D0028B9E4
:10308000002084F83C00204600F00CF8022084F870
:103090003D00211D206801F0E3F9012084F83D0086
:1030A0000020E9E738B504462068B0F1804F16D11A
:1030B00000BF1448C06940F001001249C8610846C9
:1030C000C06900F00100009000BF00BF0022052190
:1030D0001C20FFF72DFB1C20FFF71AFB11E00A490B
:1030E000206888420DD100BF0648C06940F0020048
:1030F0000449C8610846C06900F00200009000BFA2
:1031000000BF38BD001002400004004001460868BE
:10311000C06840F001000B68D8600868806800F063
:103120000702062A05D00868006840F001000B6815
:103130001860002070472DE9F04104460D4600BF9D
:1031400094F83C00012802D10220BDE8F081012062
:1031500084F83C0000BF022084F83D0020688668A7
:1031600026F0770626F47F46206886602868502877
:1031700033D00CDC202850D004DC00284BD01028A1
:1031800051D149E0302849D040284CD139E060285D
:103190002DD0702807D0B0F5805F03D0B0F5005F68
:1031A00041D10DE040E0D5E902136A68206801F0E2
:1031B00091F92068866846F077062068866033E0DB
:1031C000D5E902136A68206801F084F920688068F4
:1031D00040F480402168886026E0EA6869682068D9
:1031E00001F08CF95021206801F07FF91CE0EA68B9
:1031F0006968206801F095F96021206801F075F98F
:1032000012E0EA686968206801F078F940212068D6
:1032100001F06BF908E000BF00BF00BF296820681B
:1032200001F063F900E000BF00BF012084F83D0019
:1032300000BF002084F83C0000BF00BF85E7704756
:1032400010B5044620680069C0F34000D8B120687A
:10325000C068C0F34000B0B16FF00200216808619F
:10326000012020772068806900F0030018B1204613
:10327000FFF7E5FF05E0204600F0ADF8204600F03E
:10328000ABF80020207720680069C0F38000D8B137
:103290002068C068C0F38000B0B16FF004002168FE
:1032A0000861022020772068806900F4407018B11E
:1032B0002046FFF7C4FF05E0204600F08CF82046CA
:1032C00000F08AF80020207720680069C0F3C00071
:1032D000D8B12068C068C0F3C000B0B16FF008007A
:1032E00021680861042020772068C06900F003008D
:1032F00018B12046FFF7A3FF05E0204600F06BF869
:10330000204600F069F80020207720680069C0F3AB
:103310000010D8B12068C068C0F30010B0B16FF0E1
:10332000100021680861082020772068C06900F437
:10333000407018B12046FFF782FF05E0204600F0FC
:103340004AF8204600F048F80020207720680069FD
:1033500000F0010058B12068C06800F0010030B1F1
:103360006FF0010021680861204600F037F82068FE
:103370000069C0F3C01058B12068C068C0F3C01025
:1033800030B16FF08000216808612046FFF744FEED
:1033900020680069C0F3801058B12068C068C0F38D
:1033A000801030B16FF0400021680861204600F0C5
:1033B0002FF820680069C0F3401058B12068C06839
:1033C000C0F3401030B16FF0200021680861204642
:1033D000FFF723FE10BD70477047000010B504468C
:1033E00008492068884202D1FFF7FEF808E020680B
:1033F000B0F1804F04D1052203490448FEF73CFC9C
:1034000010BD0000002C0140B4050020C0050020C4
:10341000704710B504460CB9012010BDA06900B179
:1034200000E000BF94F8390028B9002084F8380083
:10343000204600F027F8242084F839002068C0686E
:1034400020F400502168C860204601F001F920688E
:10345000006920F49040216808612068406920F0EC
:103460002A00216848612068C06840F40050216843
:10347000C8600020E063202084F8390084F83A0016
:103480000020CAE710B586B00446002002900390E1
:10349000049005902B492068884251D100BF2A48EA
:1034A000806940F48040284988610846806900F4BA
:1034B0008040019000BF00BF00BF0846806940F017
:1034C000040088610846806900F00400019000BF94
:1034D00000BF48150290022003900320059002A926
:1034E0001A48FEF7D5FE4FF480600290002003904A
:1034F000049002A91548FEF7CBFE1548154908604F
:10350000002048600021134881608021C1600021B3
:103510000161416181614FF40051C161FEF73AFDE3
:1035200008B1FDF7FAFE00BF0A486063446200BFBD
:10353000002205212520FFF7FBF82520FFF7E8F8FA
:1035400006B010BD003801400010024000080140E4
:10355000580002409C0B002000BFFEE710B505207C
:1035600000F0D8FA00F042FB00F094F810BD30B53E
:1035700003460C461546002207E0184600F008F8FE
:1035800024F812009B1C501C82B2AA42F5DB30BD0D
:1035900001460888704700002DE9F04F85B080464D
:1035A0008A46174600200490B8F1006F02D33748CE
:1035B000804502D305B0BDE8F08FFEF73BFEA8F1D1
:1035C000006B4FEA9B26CBF34809C9F50074A7426C
:1035D00000DC3C4654E04FF0006101EB86208A1489
:1035E0002B49FFF7C4FF00250BE009EB0500284934
:1035F00031F810004FF6FF71884200D003E0681CDC
:1036000085B2A542F1DB00BFA54222DA002000907E
:103610004FF0006000EB862002900120039004A987
:103620006846FEF74DFD002508E03AF8150005EB69
:103630000901174A22F81100681C85B2A542F4DB83
:103640004FF0006101EB86208A141149FEF7AEF8B5
:1036500004E0224651464046FEF7A8F8A74200D1B2
:103660000FE0761C4FF000090AEB440AA044381B17
:1036700087B2B7F5007F02DD4FF4007400E03C46EE
:10368000A9E700BFFEF774FD00BF93E7FFFF010845
:10369000B401002000B585B000BF1048806940F03B
:1036A00008000E4988610846806900F00800009013
:1036B00000BF00BF881401900948029002200390C7
:1036C00001A90848FEF7E4FD002205212820FFF7A4
:1036D0002FF82820FFF71CF805B000BD00100240AD
:1036E00000001110000C01400EB500200090019068
:1036F00002902848284908608115274881600021E8
:10370000017301754FF46021C161002022494860B6
:10371000052121480161FEF7ABF908B1FDF7FDFD78
:1037200004200090012001900620029069461A486A
:10373000FEF75AF808B1FDF7F0FD032000900220D3
:10374000019069461448FEF74FF808B1FDF7E5FD12
:10375000052000900320019069460F48FEF744F8C9
:1037600008B1FDF7DAFD06200090042001906946BB
:103770000948FEF739F808B1FDF7CFFD07200090A2
:103780000520019069460448FEF72EF808B1FDF7C0
:10379000C4FD0EBD00240140C005002008B500BFD7
:1037A0000E48406940F001000C49486108464069F4
:1037B00000F00100009000BF00BF002205210B2097
:1037C000FEF7B6FF0B20FEF7A3FF002205210F2016
:1037D000FEF7AEFF0F20FEF79BFF08BD0010024072
:1037E00000B587B01C220E496846FCF748FD002151
:1037F000684603F06EFC0B49086002F083FA02F0A1
:10380000B3FA08B100BFFEE702F090FA08B100BFBA
:10381000FEE702F0C7FA08B100BFFEE707B000BD3F
:10382000009B00088400002000B585B000200190B6
:1038300002900390049000BF2348806940F020006C
:10384000214988610846806900F02000009000BF8F
:1038500000BF00BF0846806940F004008861084648
:10386000806900F00400009000BF00BF00BF084660
:10387000806940F0080088610846806900F008000F
:10388000009000BF00BF01224FF430710F48FEF7D7
:103890009EFEC02001901120029000200390032082
:1038A000049001A90948FEF7F3FC4FF40070019061
:1038B00001200290002003900320049001A90348F6
:1038C000FEF7E6FC05B000BD00100240000C014010
:1038D00000B587B0002003900490059006900190F9
:1038E00002904FF080401449086041F61F40486044
:1038F0000021114881606421C160002101618021A3
:103900008161FFF7B5FB08B1FDF707FD4FF480506B
:10391000039003A90848FFF70EFC08B1FDF7FDFC72
:1039200000200190029001A90348FFF777FB08B13E
:10393000FDF7F3FC07B000BDDC0A002000B587B03E
:103940000020039004900590069001900290144886
:1039500014490860472048600021124881604FF6F2
:10396000FF71C160002101618161FFF781FB08B136
:10397000FDF7D3FC4FF48050039003A90948FFF7EB
:10398000DAFB08B1FDF7C9FC00200190029001A903
:103990000448FFF743FB08B1FDF7BFFC07B000BDCB
:1039A000000400401C0B002010B50B480B490860B8
:1039B0004FF4E1304860002108488160C160016136
:1039C0000C21416100218161C161FFF722FD08B135
:1039D000FDF7A3FC10BD0000003801405C0B002087
:1039E00000BFFEE7704770B504460D4626463560B9
:1039F0000121706803F00CFB70BD000008B5084998
:103A00000968C9084FF47A72B1FBF2F141430091A1
:103A100000BF00BF00994A1E00920029F9D108BDDD
:103A2000340100202DE9F0470746884614469946A0
:103A30004FF0000A0025FDF7CFFE064600BF002527
:103A4000E2B24B464146384600F06AF805466DB191
:103A500066B15046411C01F0FF0A042802DD2846E9
:103A6000BDE8F0873046FEF717FBE8E72846F7E7A2
:103A70002DE9F04707468846144699464FF0000A5C
:103A80000025FDF7A9FE064600BF0025E2B24B4621
:103A90004146384600F07DF805466DB166B15046A6
:103AA000411C01F0FF0A042802DD2846BDE8F0872A
:103AB0003046FEF7F1FAE8E72846F7E770B5044626
:103AC0000025802C05D800210448006803F033F954
:103AD00005460DB9002070BD2846FCE7DC0000203B
:103AE00070B5044621460548006803F0C5F905464F
:103AF0000DB9012070BD0020FCE70000DC000020B3
:103B000070B504462646356AD5E9000103F080FA0F
:103B100070BD0000014908807047000024010020AA
:103B20002DE9F0410746884614461D4600F034F959
:103B3000002141EA4701C8B200F0AEF9064616B1CD
:103B40003046BDE8F081404600F0A6F906460EB1C9
:103B50003046F6E700F020F9012101EB4701C8B239
:103B600000F09AF906460EB13046EAE70BE0012C68
:103B700003D100F09DF8287002E000F0D3F828701F
:103B80006D1C601EC4B2002CF1D100F041F9002080
:103B9000D7E72DE9F04706460F469046994600259F
:103BA00000F0FAF8002141EA4601C8B200F074F9C9
:103BB000054615B12846BDE8F087384600F06CF997
:103BC00005460DB12846F6E7002409E019F804007F
:103BD00000F062F905460DB12846ECE7601CC4B25E
:103BE0004445F3DB00F014F90020E4E700B585B0AC
:103BF00000BF2948806940F00800274988610846CD
:103C0000806900F00800009000BF00BF00BF0846B8
:103C1000806940F0080088610846806900F008006B
:103C2000009000BF00BF40200190112002900320AF
:103C3000049001A91948FEF72BFB80200190112068
:103C400002900320049001A91448FEF721FB00BF55
:103C5000002280211148FEF7BAFC00BF00BF0122FC
:103C600040210E48FEF7B3FC00BF0D4800F01AF8E3
:103C700000BF012240210948FEF7A9FC00BF00BF98
:103C8000012280210548FEF7A2FC00BF044800F095
:103C900009F805B000BD000000100240000C014012
:103CA000A086010000BF411E081EFCD17047000025
:103CB00070B500BF012280211948FEF788FC00BFC3
:103CC00000BF002240211648FEF781FC00BF0024FF
:103CD00000251EE000BF012240211148FEF777FCBD
:103CE00000BF0A20FFF7DEFF6006040E80210C48AB
:103CF000FEF75EFC08B144F0010400BF0022402141
:103D00000748FEF764FC00BF0A20FFF7CBFF681CE2
:103D1000C5B2082DDEDB00F0FDF8204670BD0000C6
:103D2000000C014070B500BF012280211948FEF748
:103D30004EFC00BF00BF002240211648FEF747FCA2
:103D400000BF002400251EE000BF012240211148D1
:103D5000FEF73DFC00BF0A20FFF7A4FF6006040E3B
:103D600080210C48FEF724FC08B144F0010400BF98
:103D7000002240210748FEF72AFC00BF0A20FFF777
:103D800091FF681CC5B2082DDEDB00F063F8204609
:103D900070BD0000000C014010B500BF0122802161
:103DA0001A48FEF714FC00BF0A20FFF77BFF00BF94
:103DB000012240211548FEF70AFC00BF0A20FFF748
:103DC00071FF80211148FEF7F3FB08B9012010BDF7
:103DD00000BF002280210D48FEF7F9FB00BF0A203A
:103DE000FFF760FF00BF002240210848FEF7EFFB0D
:103DF00000BF0A20FFF756FF80210448FEF7D8FBDA
:103E000008B10220E3E70020E1E70000000C0140D8
:103E100010B500BF002280210D48FEF7D8FB00BF7F
:103E20000A20FFF73FFF00BF012240210848FEF7AC
:103E3000CEFB00BF0A20FFF735FF00BF0122802123
:103E40000348FEF7C4FB00BF0A20FFF72BFF10BD9D
:103E5000000C014010B500BF002280210D48FEF784
:103E6000B6FB00BF0A20FFF71DFF00BF0122402163
:103E70000848FEF7ACFB00BF0A20FFF713FF00BFA6
:103E8000002240210348FEF7A2FB00BF0A20FFF7F3
:103E900009FF10BD000C014070B5044600BF0022B0
:103EA00040211B48FEF793FB00BF00252BE004F0E8
:103EB000800030B100BF012280211548FEF787FB4A
:103EC00006E000BF002280211148FEF780FB00BF02
:103ED0006006040E0A20FFF7E5FE00BF0122402124
:103EE0000B48FEF774FB00BF0A20FFF7DBFE00BFA4
:103EF000002240210648FEF76AFB00BF0A20FFF7B8
:103F0000D1FE681CC5B2082DD1DB00F025F870BDCC
:103F1000000C014010B500BF012280210D48FEF7C2
:103F200056FB00BF0A20FFF7BDFE00BF0122402163
:103F30000848FEF74CFB00BF0A20FFF7B3FE00BFA6
:103F4000002240210348FEF742FB00BF0A20FFF792
:103F5000A9FE10BD000C014010B5002400BF0122D5
:103F600080211448FEF733FB00BF0A20FFF79AFEBA
:103F700000BF012240210F48FEF729FB00BF0A20A5
:103F8000FFF790FE07E0601CC4B2FA2C03DDFFF7D8
:103F90003FFF022010BD80210648FEF709FB0028E4
:103FA000F1D100BF002240210248FEF710FB00BF04
:103FB0000020EFE7000C014000BF4FF4FA7002F060
:103FC000A9FE4FF400710248FEF7FAFAF5E7000087
:103FD000000C0140F0B500EB400404EBC0040F4FAF
:103FE000DDE9056507EB8404401E2C3C052801D360
:103FF0008620F0BD2161A282E2822385C4E90665A4
:1040000072B62068416941F0010141612068C168D0
:1040100041F02001C16062B60020F0BD0000002028
:1040200070B500EB400404EBC0040B4E401E06EBE1
:1040300084042C3C049D052801D3862070BDA1601A
:10404000A281C4E9083572B62068C16841F08001D8
:10405000C16062B6002070BD0000002098B04FF42F
:10406000FA7002F057FEFFF779FA9048149014A8FE
:1040700002F0A6F8782002F0A5FD782002F010F8F2
:10408000642002F051FD16A802F08AF815A802F08B
:1040900065F817A802F03CF88548002101604160EE
:1040A00001810320824908700420888001F05AF9B8
:1040B000804C204601F093FF0546E01C01F08FFF85
:1040C00045EAC00085B2A01D01F089FF45EA8010D5
:1040D00085B200BF2E46304601F06EFA40F27310F2
:1040E0007349C880C88800F0E5FF642001F02CFA0D
:1040F000012002F015FC01206D4948706E4903C98A
:10410000CDE9120103F014F812906B49083103C98C
:10411000CDE9100112AA012110A803F00DF8834681
:104120000A21584603F02EF800BF4FF0FF3210214D
:104130000CA802F09DFF5E48007810B15C488078C2
:1041400000B9F2E75A48807800287DD05848407876
:104150000028FAD009A80AA90FAB05AACDE90010DA
:104160000BA90DA801F00AF99DF8240010B9002050
:104170004F498870BDF8280000F4807000287DD079
:104180004B48007900F004000028F8D005A902A8E7
:1041900001F01CFE0298FCF7CDFB80460022474B45
:1041A000FCF7D9FA06460022454BFCF746FB0446CD
:1041B000FCF768FC434908600398FCF7BBFB8046AA
:1041C00000223E4BFCF7C7FA064600223C4BFCF7A8
:1041D00034FB0446FCF756FC3B4908600498FCF7A6
:1041E000A9FB06460022354BFCF7B5FA044600222F
:1041F000334BFCF722FB8046FCF744FC3349086054
:104200000846016832480068FCF788F90446FCF764
:10421000AFFB00EB400101EBC00040B28DF80400A1
:10422000284801682B480068FCF778F90446FCF739
:104230009FFB00EB400101EBC00040B28DF8050090
:104240000E20FFF73BFC00E02EE08246BAF1000FA3
:1042500020D00E215046FCF72BF814208AF80000DD
:104260000E208AF801009DF804008AF802009DF8EB
:1042700005008AF803001848016800E013E0CAF856
:1042800004104168CAF808100089AAF80C005046CA
:10429000FFF726FC0B4800680E4908600B480068D1
:1042A0000B49086000BF00BF3FE70000615C0008E9
:1042B000300C0020C800002084A700080000F03F58
:1042C0000000F040B4000020B8000020BC00002036
:1042D000C4000020C0000020860C002019B1012974
:1042E00016D0022923D10268D36823F02003D360BB
:1042F0000268536923F0010353618269002A16D0D2
:1043000011B10021C06911E0C18A838AC91AF9E795
:104310000268D36823F08003D3600268D36823F077
:104320004003D360026A002A01D0406A10477047F8
:1043300010B500BF502080F31188BFF34F8FBFF33B
:104340006F8F00BF05F0E4F818B14FF080500449BA
:10435000086000BF002080F3118800BF10BD00007E
:1043600004ED00E000B593B0282109A8FBF7A0FFF9
:10437000142104A8FBF79CFF0020009001900290FC
:1043800003900120099000040A9000200B90012066
:104390000D9002201090C10311914FF4E011129181
:1043A00009A8FEF707FC08B1FCF7B7FF0F2004903F
:1043B00002200590002006904FF4806007900020B6
:1043C0000890022104A8FEF79DFA08B1FCF7A5FFAA
:1043D00002200090800302906846FEF7FBF908B1C6
:1043E000FCF79BFF13B000BD1148006840F00100CE
:1043F0000F490860084640680E4908400C4948606B
:10440000084600680C4908400949086008460068E9
:1044100020F4802008600846406820F4FE004860D0
:104420004FF41F008860C80304490860704700000B
:10443000001002400000FFF8FFFFF6FE08ED00E06C
:1044400010B50248FEF7FCFE10BD0000E00B002096
:1044500010B50248FEF7F4FE10BD0000DC0A002093
:1044600010B50268184B984208D0B0F1804F05D0C3
:10447000164B984202D0164B984203D122F070029C
:104480004B681A43104B984208D0B0F1804F05D0CA
:104490000E4B984202D00E4B984203D122F4407248
:1044A000CB681A4322F080034C6943EA040202609D
:1044B0008B68C3620B688362034B984201D10B691E
:1044C00003630123436110BD002C01400004004040
:1044D0000008004030B50C46816821F47F4142EA73
:1044E000032525432943816030BD0A46816821F0B8
:1044F000700142F0070319438160704730B50B46E5
:104500001446026A056A25F001050562816921F0F9
:10451000F00141EA041122F00A021A4381610262A9
:1045200030BD30B50B461446056A25F0100505620E
:104530008169026A21F4704141EA043122F0A0024B
:1045400042EA03128161026230BDF8B50446006898
:104550004169C90723D00168026811F00101C2F363
:1045600040050268C2F380030268C2F3C00200D0B3
:104570000121294300D00121194300D00121114319
:104580000DD001684168009101684168009101689F
:1045900041680091016840680221009051E0016883
:1045A000C1F34012C16801F020018AB181B14068B5
:1045B0002169C0B24A1C22610870A18A491E0904FF
:1045C000090CA18202D0218D814201D1002138E065
:1045D00025682868E968C0F3C01001F0800120B3A5
:1045E00019B3207925280BD1A0680678FBF73AFE8D
:1045F0000068805D80EA8001090601D4C0071FD0F1
:10460000A068411CA16000786860A089401E000479
:10461000000CA08109D12068C16821F08001C1602F
:104620002068C16841F04001C16021680868C9681C
:10463000C0F3801001F04001002807D0002905D008
:1046400001212046BDE8F840FFF748BEF8BD000054
:1046500070B504462168096921F44051E2681143AC
:10466000226811612269A1681143626941EA020569
:104670002168C96841F20C62914329432268D160E4
:104680002168496921F44071A2691143226851618E
:10469000564A2168914254D1FEF732FA00EBC0012C
:1046A00001EB001162689200B1FBF2F100EBC00275
:1046B00002EB001263689B00B2FBF3F26423B2FBCF
:1046C000F3F202EBC20303EB0212A1EB82013222EE
:1046D00002EB01116422B1FBF2F101F0F00100EBF9
:1046E000C00202EB001263689B00B2FBF3F264238A
:1046F000B2FBF3F201EB021200EBC00101EB00117F
:1047000063689B00B1FBF3F100EBC00303EB001304
:104710006668B600B3FBF6F36426B3FBF6F303EB6F
:10472000C30606EB0313A1EB8301322303EB011154
:104730006423B1FBF3F101F00F0111442268916091
:1047400053E0FEF7CDF900EBC00101EB0011626808
:104750009200B1FBF2F100EBC00202EB00126368C1
:104760009B00B2FBF3F26423B2FBF3F202EBC20351
:1047700003EB0212A1EB8201322202EB011164224F
:10478000B1FBF2F101F0F00100EBC00202EB00120C
:1047900063689B00B2FBF3F26423B2FBF3F201EB1C
:1047A000021200EBC00101EB001163689B00B1FB3A
:1047B000F3F100EBC00303EB00136668B600B3FB34
:1047C000F6F36426B3FBF6F303EBC30606EB031321
:1047D000A1EB8301322303EB01116423B1FBF3F15D
:1047E00001F00F0111442268916070BD0038014052
:1047F0000148FFF7AABE0000000000200148FFF7B3
:10480000A4BE00002C00002000BFFEE70FB4084B40
:1048100010B504A902AA039800F058F8044602A9AA
:10482000002000F07EFA204610BC5DF814FB00006A
:10483000234D00084100080218BF04200A0E18BFCB
:1048400040F001004FF07F4232EA010108BF40F022
:104850000200012808BF05207047000002480068D8
:10486000C0F30220704700000CED00E010B50028F6
:1048700004DB0A07130E054A135406E00A07140E58
:10488000034A00F00F031B1FD45410BD00E400E0E6
:1048900018ED00E0FBF7F0BD6FF05E010807FCF7D4
:1048A00023BC02E008C8121F08C1002AFAD17047D1
:1048B0007047002001E001C1121F002AFBD17047A0
:1048C0000149086070470000B00100202DE9FF4F4A
:1048D0008DB00F460546002606E025280BD0DDE901
:1048E0000F1290476D1C761C28780028F5D111B066
:1048F0003046BDE8F08F0024A246A1460122E949D6
:1049000000E0044315F8013F203B02FA03F008429F
:10491000F7D128782A2810D06FF02F022878A0F13C
:104920003001092914D80AEB8A0102EB410144F055
:10493000020400EB010A6D1CF0E701CF5FEA000AF8
:1049400003D544F40054CAF1000A44F002046D1C7B
:1049500028782E2817D115F8010F44F004042A28CE
:104960000ED06FF02F022878A0F1300109290AD863
:1049700009EB890102EB410100EB01096D1CF2E733
:1049800057F8049B6D1C28786C280FD006DC4C2847
:1049900017D068280DD06A2814D104E0742810D0EC
:1049A0007A280FD10DE044F400140AE044F4801496
:1049B00001E044F440146978814202D104F5801486
:1049C0006D1C6D1C28786E281ED00CDC632830D03E
:1049D00004DC00288BD0582811D19FE0642867D0D0
:1049E00069280CD164E073282DD004DC6F2872D0C4
:1049F000702804D194E075286ED078286DD0DDE958
:104A00000F129047761C4BE1C4F30250022806D0E7
:104A1000032809D0042801CF09D0066040E101CF66
:104A2000F117C0E900613BE101CF068038E1067073
:104A300036E117F8040B8DF8000000208DF8010016
:104A4000EB46012003E057F804BB4FF0FF3061074D
:104A50004FF0000102D40DE008F1010188464945FC
:104A60000FDA8045F8DB1BF808100029F4D108E0C4
:104A700008F1010188468142FADB1BF80810002981
:104A8000F6D1DDE90F23AAEB08008146214600F0AC
:104A900031F9304400EB080604E0DDE90F121BF8A1
:104AA000010B9047B8F10108F7D221464846F2E0E1
:104AB0000A21C4F302524FF0000B0891022A04D0DD
:104AC00001CFC117032A09D00AE0FF1D27F007070D
:104AD000F7E8020108E02CE01EE01FE000B2C11779
:104AE000042A01D140B2C117021E71F1000206DA98
:104AF0000023D0EB030063EB01012D2202E022052D
:104B000004D52B228DF82420012203E0E20701D0F6
:104B10002022F7E7904653E00A210BE0102109E03C
:104B200010214FF0000B44F004044FF008090891E5
:104B300003E008214FF0000B0891C4F30252022A4F
:104B400004D001CF0021032A06D006E0FF1D27F084
:104B50000707F7E8020103E080B2042A00D1C0B2DF
:104B60004FF0000822072BD52A78702A07D0DDF8ED
:104B700020C08CF0100C5CEA0B0C05D00EE040223B
:104B80008DF82420012208E050EA010306D03023EA
:104B90008DF824308DF8252002229046089B83F062
:104BA000080353EA0B030BD150EA010201D162075B
:104BB00006D530228DF824204FF00108A9F1010913
:104BC0002A78582A04D038A20B9208AA0A920BE03D
:104BD0003AA2F9E75B46089AFBF784FF0B9B9B5CC4
:104BE0000A9A521E0A92137050EA0102F2D10A98F0
:104BF000ADEB000000F1200B600702D524F48034F7
:104C000001E04FF00109D94502DDA9EB0B0000E0FE
:104C1000002000EB0B0141440890AAEB010AE003DD
:104C200006D4DDE90F232146504600F063F8064420
:104C30004FF0000908E009A911F80900DDE90F1299
:104C4000904709F10109761CC145F4DBE0030CD55E
:104C5000DDE90F232146504600F04CF8064404E0FD
:104C6000DDE90F1230209047761C0899481E089005
:104C70000029F5DC08E00A980A990078491C0A9195
:104C8000DDE90F129047761CBBF10001ABF1010B7F
:104C9000F1DC21465046DDE90F2300F019F8064407
:104CA0006D1C21E6092801003031323334353637A6
:104CB0003839616263646566000000003031323368
:104CC0003435363738394142434445460000000008
:104CD0002DE9F041044600251E461746880404D4F9
:104CE00005E039462020B0476D1C641EF9D52846E2
:104CF000BDE8F0812DE9F041044600251E469046AE
:104D0000C80301D5302700E02027880404D505E03A
:104D100041463846B0476D1C641EF9D52846BDE8AB
:104D2000F0810A68531C0B60107070472DE9F04742
:104D30004FF0684202EB40030C460546B3F1654F65
:104D40003CBF02EB4102B2F1654F80F0CD8000BF65
:104D5000C0F3C752C1F3C753D21A1B2A06DD10F0A5
:104D6000004F14BF87488848BDE8F08712F11A0F3A
:104D70002FDA11F0004F06D010F0004F0CBF83481F
:104D80008348BDE8F08721462846FBF7FFFB06462F
:104D9000FFF750FD042808BFFFF77EFD2846FFF708
:104DA00049FD05462046FFF745FD04463046FFF71E
:104DB00041FD042D18BF052D08D1042C18BF052C6A
:104DC00004D1002804BF0220FFF77AFD3046BDE879
:104DD000F0874200B2EB410F25D910F0004F19BF08
:104DE0006C4F6D4E6D4F6E4E224685F00044154659
:104DF0000A4680F0004110460A1A5200B2F1807F44
:104E00003ED248406749DFF8A0A110F0004F18D00B
:104E10004FF03F483846FBF781FB07465146304686
:104E2000FBF77CFB17E011F0004F04BF002637466C
:104E3000E2D010F0004F19BF5C4F5D4E5D4F5E4EEB
:104E4000DAE74FF07C583846FBF716FB0746514629
:104E50003046FBF711FB064641462846FBF764FB4C
:104E60002146FBF709FB824621464046FBF75CFBE7
:104E70002946FBF756FB5146FBF788FB044604E046
:104E800021462846FBF782FB04460146FBF74CFB14
:104E900080464A49FBF748FB4949FBF7EDFA414692
:104EA000FBF742FB4749FBF7E7FA4146FBF73CFBC0
:104EB0004549FBF7E1FA4146FBF736FB4349FBF76F
:104EC000DBFA054641462046FBF72EFB2946FBF759
:104ED0002BFB3146FBF7D0FA2146FBF7CDFA3946DA
:104EE000BDE8F047FBF7C8BA4FF07F42B2EB400F86
:104EF00028BFB2EB410F03D2BDE8F047FFF7CABCB1
:104F000040EA01035B0008BF44F0FF410AD0B2EB66
:104F1000400F08BFB2EB410F06D125F0804024F0CE
:104F2000804105460C4613E7B2EB400F12BF5FEA23
:104F3000410345F0FF4004F000413FF409AFB2EBFC
:104F4000410F12BF5FEA400205F0004044F0FF410C
:104F50003FF4FEAE4A0092EA40033FF5F9AE002A64
:104F6000ACBF4FF09F464FF03E563146FBF7DCFAA0
:104F7000054631462046FBF7D7FA04462846214627
:104F8000E6E60000DB0FC9BFDB0FC93FDB0F49407E
:104F9000DB0F49C00000C9BF22AAFDB90000C93F0C
:104FA00022AAFD390060ED3EC30ACE37000049C099
:104FB00022AA7DBA0000494022AA7D3A2DAD65BDE6
:104FC0008FB8D53D0FB511BE61C84C3EA8AAAABE88
:104FD00030B502464FF6FF7018E012F8015B80EA28
:104FE000052008230FE000F400443CB14FF6FF74A5
:104FF00004EA400041F22104604003E04FF6FF74F0
:1050000004EA40005B1E002BEDD1491E0029E4D1CB
:1050100030BD00002DE9F0410446E07800F0C00604
:10502000E07800F03F05607800F0010098B1EF10E3
:105030002846E91705EB5171C910A5EBC101491CC0
:1050400001F0FF080B48006820B10A484146026899
:105050003846904700BF607800F0080030B105483E
:10506000406818B1B011034A516888470020BDE874
:10507000F0810000200C002038B5044664B12020E7
:105080008DF8000028208DF8010030208DF80200F6
:1050900038208DF8030004E0A32204216846FBF7C2
:1050A00000F96A46042140F69E2001F0F3FD01F06C
:1050B0006BFA38BD3EB5044602208DF80000CA20C8
:1050C0008DF80100E3208DF8020009208DF803001F
:1050D0006A460421682001F0DDFDA3208DF8000060
:1050E00004F0400048B1C0208DF80100C8208DF8C0
:1050F0000200C2208DF8030006E0A3208DF8010015
:105100008DF802008DF8030004F4C07048B1C4208B
:105110008DF80400CC208DF80500C6208DF806001F
:1051200006E0A3208DF804008DF805008DF8060038
:10513000A3208DF807008DF808008DF809006A4655
:105140000A2140F6A72001F0A5FD04F0030018B1E4
:1051500020208DF8000002E0D8208DF800006A467B
:10516000012140F6B62001F095FD04F0200018B1B1
:10517000012000F0ADF802E0002000F0A9F804F4EE
:10518000C07008B304F4807060B1B2208DF80000E4
:105190008B208DF80100B6208DF802009B208DF841
:1051A00003000BE0B0208DF8000080208DF8010096
:1051B000B4208DF8020090208DF803006A46042187
:1051C00040F6A22001F066FD04F0010020B3F820B3
:1051D0008DF800006A4601214FF40B6001F05AFD82
:1051E000FA21072000F0FCFA072000F0C3FA0120A2
:1051F00000F0E3FA642000F0C3FB4FF4FA7000F013
:10520000D2FBC821304800F073FA282000F08CFA55
:105210000A2000F09CFA08E0D8208DF800006A46C9
:1052200001214FF40B6001F035FD04F0020018B1CC
:10523000D9208DF8000002E0D8208DF800006A46E1
:10524000012140F23D7001F025FD04F0040018B189
:10525000012000F069F802E0002000F065F804F099
:10526000100018B10120FFF707FF02E00020FFF750
:1052700003FF44F008001549488101F085F900203A
:105280001249887304F0400018B10846807B801DE5
:10529000887304F4C07020B10C48807B801D0B49DA
:1052A000887304F0140020B10848807B103007494F
:1052B000887304F0030020B10448807B001D03497B
:1052C000887300203EBD000009E3CA02200C0020C4
:1052D0003EB504466CB10EA1D1E900208968CDE944
:1052E000002002916A4609214FF4976001F0D2FC38
:1052F0003EBD0AA2D2E900109268CDE901020091F8
:105300006A4609214FF4976001F0C4FCF0E7000001
:10531000B8AAB38DB4980D355D000000B8AAAAAA4A
:10532000B088C3C5C700000038B5044664B1C020CA
:105330008DF80000C2208DF80100C4208DF8020015
:10534000C6208DF8030004E08B2204216846FAF79A
:10535000A8FF6A46042140F6982001F09BFC01F06A
:1053600013F938BD10B5C8234FF48062024940F6E6
:10537000F63000F0A3FF10BD1C9B00082DE9F04F94
:105380008DB00746884615469946DDE9166B002420
:10539000002030806B49887B5A4605A901F054F8FB
:1053A00018B1601E0DB0BDE8F08F6648807A00F03D
:1053B0001400002867D09DF8140000069DF8151011
:1053C00040EA01409DF8161040EA01209DF81710B0
:1053D000084328609DF8180000069DF8191040EA5F
:1053E00001409DF81A1040EA01209DF81B10084367
:1053F00068609DF81C0000069DF81D1040EA014001
:105400009DF81E1040EA01209DF81F100843A86077
:105410009DF8200000069DF8211040EA01409DF80B
:10542000221040EA01209DF823100843E86004F1AF
:105430001000C4B22868001401906868001402903B
:10544000A86800140390E868001404900198404391
:10545000029901FB0100039901FB0100049901FB82
:10546000010ABAF1706F02DBBAF1885F05DD01F065
:105470008BF800203080401E94E7B6F9000040F41D
:105480008070308000BF2F48807A00F0400020B349
:1054900005A9601C085C095D40EA012000B2A8F87B
:1054A000000005A9E01C095C05AAA01C105C41EAEB
:1054B000002000B2A8F8020005A9601D095C201DAB
:1054C000105C41EA002000B2A8F80400A01DC4B29C
:1054D000B6F9000040F0080030801A48408900F416
:1054E000C07008B305A9601C085C095D40EA012092
:1054F00000B2388005A9E01C095C05AAA01C105C5C
:1055000041EA002000B2788005A9601D095C201DD9
:10551000105C41EA002000B2B880A01DC4B2B6F908
:10552000000040F0700030800648807A00F00300F0
:1055300018B105A90819FFF76DFD484600F0A8FA53
:1055400000202FE7200C002030B585B0044616A2BD
:1055500007CA02AB07C3C82C03DD4FF0FF3005B00C
:1055600030BDC82090FBF4F0401E85B2280A8DF8AB
:105570000000E8B28DF801006A46022140F21620D0
:1055800001F088FB10B14FF0FF30E8E702AA0C21D0
:1055900040F6C12001F07EFB10B14FF0FF30DEE796
:1055A000044884810020DAE7FEF2ABC4AAF1DFDF11
:1055B000BBAFDFDF200C002010B586B0044647A04B
:1055C0000068039046A00068029046A00068019021
:1055D00045A00068009004F0030003A9085C8DF862
:1055E000140003A8C4F3C101405C8DF8150003A8A2
:1055F000C4F38111405C8DF8160004F0030002A989
:10560000085C8DF8100002A8C4F3C101405C8DF85D
:10561000110002A8C4F38111405C8DF8120005AAA4
:10562000032140F2264001F035FB18B14FF0FF3066
:1056300006B010BD04AA032140F22A4001F02AFB63
:1056400010B14FF0FF30F3E70198059000980490F7
:1056500004F0040058B19DF8140040F001008DF8EA
:1056600014009DF8100040F001008DF8100004F0C7
:10567000200058B19DF8150040F001008DF815008C
:105680009DF8110040F001008DF8110004F48070C5
:1056900058B19DF8160040F001008DF816009DF8F5
:1056A000120040F001008DF8120005AA03214FF40A
:1056B000886001F0EFFA10B14FF0FF30B8E704AAAC
:1056C000032140F2314001F0E5FA10B14FF0FF3014
:1056D000AEE7064804810020AAE700004CCD6C002C
:1056E0000CC92C003656760026466600200C002099
:1056F000F8B505460E464FF47A7095FBF0F000FBC6
:1057000006F4200E8DF80000200C8DF80100200A10
:105710008DF80200E0B28DF803006A4604214FF4D0
:10572000AE7001F0B7FAF8BD38B50446052094FB19
:10573000F0F084B220128DF80000E0B28DF8010084
:105740006A4602214FF4AD7001F0A4FA38BD38B5B5
:105750000446052094FBF0F084B220128DF800007E
:10576000E0B28DF801006A4602214FF4AC7001F0FE
:1057700091FA38BD38B504460020009004F00100CD
:1057800020B19DF8000040F03000009004F00200CD
:1057900020B19DF8000040F00C00009004F00400DF
:1057A00020B19DF8000040F0030000906A460121FE
:1057B0004FF4A47001F06EFA38BD38B50446012CE0
:1057C00001DA012402E0042C00DD0424601EC0B2D2
:1057D00000906A46012140F24F1001F05BFA38BD9B
:1057E0002DE9FC4706460F4606F0070010B1B7F555
:1057F000C86F03DD4FF0FF30BDE8FC873846FBF78C
:1058000094F881465949FAF7C1FE8046684600F08F
:105810007FFC9DF80000022806D0042816D0082836
:1058200026D0102848D135E04FF08D414046FAF798
:105830007BFE8146FBF7B5F884B24D494046FAF746
:1058400073FE8146FBF7ADF885B238E04FF08C412E
:105850004046FAF769FE8146FBF7A3F884B2454952
:105860004046FAF761FE8146FBF79BF885B226E0D9
:105870004FF08B414046FAF757FE8146FBF791F80F
:1058800084B23D494046FAF74FFE8146FBF789F85E
:1058900085B214E04FF08A414046FAF745FE814652
:1058A000FBF77FF884B235494046FAF73DFE814662
:1058B000FBF777F885B202E04FF0FF309CE700BFBE
:1058C00020128DF80400E0B28DF8050028128DF842
:1058D0000600E8B28DF8070006F00100A0B101AAA9
:1058E00002214FF4EA7001F0D5F910B14FF0FF300A
:1058F00082E70DF1060202214FF4927001F0CAF91D
:1059000010B14FF0FF3077E706F00200A0B101AA16
:1059100002214FF4EC7001F0BDF910B14FF0FF30EF
:105920006AE70DF1060202214FF4947001F0B2F91A
:1059300010B14FF0FF305FE706F00400A0B101AAFC
:1059400002214FF4EE7001F0A5F910B14FF0FF30D5
:1059500052E70DF1060202214FF4967001F09AF918
:1059600010B14FF0FF3047E7002045E70000484303
:10597000000040460000C045000040450000C04413
:1059800038B50446052094FBF0F085B228128DF856
:105990000000E8B28DF801006A4602214FF4EF7072
:1059A00001F078F938BD38B50446052094FBF0F0D5
:1059B00085B228128DF80000E8B28DF801006A4621
:1059C00002214FF4ED7001F065F938BD2DE9F04F7B
:1059D00087B006468A4690461C46002005900690F1
:1059E00001F0A6FB069000202060834600BF05A8BA
:1059F00026491FFA8AF20A23CDE900103146012018
:105A0000FEF7E8FA0490049800B13BE04FF0FF3253
:105A1000012101A801F02CFB059D022D03D2206875
:105A2000284420602EE0681E305C0A2803D02068DD
:105A30002844206026E06A1E0D213046FAF743FC18
:105A400007461FB92068284420601BE0A7EB060921
:105A5000206848442060A81EA0EB0900C8F8000098
:105A6000791C3046D8F80020FAF709FC0020D8F855
:105A700000107054BBF1000F00D08346012007B026
:105A8000BDE8F08F0BF1010BB1E70000E73900082A
:105A900010B50446FCF7A2FD2060002010BD0000F8
:105AA0002DE9FC5F4FF0000A10E0444830F81A007E
:105AB000B0F54E6F05DA41480A3030F81A00052873
:105AC00002DA0120BDE8FC9F0AF1010ABAF1050FD4
:105AD000EBDB3A48008839494989401A322801DA13
